:100000000C94F9050C9416060C9416060C9416061E
:100010000C9416060C9416060C9416060C941606F0
:100020000C9416060C9416060C94FD210C943F219A
:100030000C94F51A0C9416060C9416060C941606DD
:100040000C9416060C9416060C9416060C941606C0
:100050000C9416060C94A81A0C9416060C9416060A
:100060000C9416060C9416060C9416060C941606A0
:100070000C9416060C9416060C9416060C94160690
:100080000C9416060C9416060C9416060C94160680
:100090000C9416060C9416060C9416060C94160670
:1000A0000C9416060C9416060C941606770E7B0E0E
:1000B000860E930E520E580E5E0E640E6C0E720E6D
:1000C000040F780F0C0FD60EDA0E100FDD0E130F83
:1000D0001E0FE80E6E0FEC0E220FF00E260F500FC3
:1000E000F40E2A0F5A0FFA0E300F3A0FE10E170FC7
:1000F000E40E1A0FFF0E350F460F660F680FD20E73
:10010000080F810F9E0ED00FD50FDA0FDF0FE40F0F
:10011000E90FEE0FF30FF80FFD0FAC0EAE0E04104B
:100120000610AB0FAB0FAB0FAB0FAB0FAB0F7810D5
:100130007810AB10AB1028113E123E123E12461141
:10014000BA11CB11CB114B1F721F2721721F272110
:10015000BE1FE11F2721E220F220A331A831B231D6
:10016000A631AB31B031AE310102E001014F0103E4
:10017000E0000102E00101500103E0000101E001A3
:10018000043130307C0101E301043130307C010165
:100190004F000101E001043130307C0101E3010432
:1001A0003130307C010150000102E40102E701011D
:1001B0004F0103E70103E4000102E40102E701014A
:1001C000500103E70103E4000020103000504060BC
:1001D000003121410061517100120222004232526D
:1001E000007262820013032300534363001404244B
:1001F0000064547400150525004535550075658566
:1002000000160626004636560017072700473757C0
:100210000028183800584868003929490069597978
:10022000001A0A2A004A3A5A012010300150406050
:100230000131214101615171011202220142325208
:1002400001726282011303230153436301140424E6
:100250000164547401150525014535550175658501
:10026000011606260146365601170727014737575C
:100270000128183801584868013929490169597914
:10028000011A0A2A014A3A5A05010980A101850387
:1002900019012AB700150126B700950175108100D4
:1002A000C0050C0901A101850419012AA00215014C
:1002B00026A002950175108100C005010906A10163
:1002C0008506050719E029E7150025019508750140
:1002D00081020507190029EF1500250195F0750128
:1002E00081020508190129059505750191029501FD
:1002F00075039101C00660FF0961A1010962150043
:1003000026FF009520750881020963150026FF006D
:10031000952075089102C005010906A1010507197C
:10032000E029E71500250195087501810295017501
:100330000881010507190029FF150026FF00950611
:100340007508810005081901290515002501950585
:1003500075019102950175039101C009025B0003CB
:100360000100A0FA090400000103010100092111A4
:10037000010001224400070581030800010904016E
:1003800000020300000009211101000122220007E0
:100390000582032000010705030320000109040270
:1003A000000103000000092111010001226D000776
:1003B00005840320000112010002000000089732AA
:1003C00076490001010203011A034A003000470088
:1003D0006F0057002F0077004F004E007600360068
:1003E0004400000016034500720067006F006400BF
:1003F0006F007800200045005A00000028035A00D2
:1004000053004100200054006500630068006E0046
:100410006F006C006F006700790020004C006100E5
:100420006200730000000403090429002B00E100AE
:10043000E000215200001E00140004001D003400E2
:10044000E2001F001A0015001B0035002A002000E2
:100450000900160006002F002C00210013001700D1
:1004600007003000E300220005000A001900000028
:100470004A002E0262520000067E00004D002D0050
:1004800064520000077E00004B0023000D001000A6
:100490000E0000004E0024000F0011000B00500061
:1004A000290025001800080036004F00280026000B
:1004B0001C000C00370051004C00270033001200D4
:1004C00038005200E6002E00310034002352E400D0
:1004D00000002901010001000100010000003A00B4
:1004E0003500200235020100057E3B001F0221027B
:1004F0002302010027783C002F0226022F00010072
:10050000087E3D003002270230000100047E3E00DC
:10051000310224021E02000001000100010000005F
:1005200062520000037E0100010000000100000093
:1005300020783F00520051002202000001004000DC
:10054000240021001E0001000100410025002200BE
:100550001F003700097E42002600230020002700EC
:100560002478430025022E0231002E0001004400B1
:100570004500010001000100000029002B000000DF
:10058000E100E00000001E00140004001D00E30074
:1005900001001F001A0016001B00E2002A002000C4
:1005A00008000700060001002C00210015000900CA
:1005B000190001000100220017000A0005000000D8
:1005C0000100010001000000010000000100010025
:1005D0000100000001000000010023001C000B00CE
:1005E000110000002900240018000D001000010077
:1005F000010025000C000E00360001002800260036
:1006000012000F0037000100010027001300330023
:10061000380001000100010001000100010001009B
:1006200000000100010001000100010000000100C4
:100630000100010001000100010001000100500063
:100640000100010001000100520051000100010001
:100650000100010001004F00010001000100010044
:100660000100010001000000010001000100000084
:100670000100000001000100010000000100000075
:100680000100010001000100010000000100010063
:1006900001004A0001000100010001004B004E0072
:1006A000010001000100010001004D0001000100F6
:1006B0000100010001000100010001000100010032
:1006C0000100010001000100000001000100010023
:1006D000E300010000000100010001000100010031
:1006E000E300010001000100010001000100010020
:1006F00001000100010001000100010001000100F2
:1007000001000100E0000100010001000100000003
:1007100001000100010000000A7E0000010001004C
:10072000010000000B7E000001000100010001003B
:1007300001000000010001000100010001000100B2
:1007400001000100010001000100010001000100A1
:100750000100010001000100010001000100010091
:100760000100010001000100010001000100010081
:100770000000000000000000000000000000000079
:100780000000000000000000000000000000000069
:100790000000000000007E0F00D4FFFFFFC7000034
:1007A000007800000000000000002A2B2800000054
:1007B0000000000000000000000000000029000010
:1007C00000002C1E3420212224342627252E362DED
:1007D0003738271E1F202122232425263333362E87
:1007E00037381F0405060708090A0B0C0D0E0F10F9
:1007F0001112131415161718191A1B1C1D2F31303E
:10080000232D350405060708090A0B0C0D0E0F10E1
:100810001112131415161718191A1B1C1D2F31301D
:10082000354C000101010101010101010202020236
:10083000020202020203030303030303030404048A
:100840000404040405050505050606060606070753
:1008500007070708080808090909090A0A0A0B0B0B
:100860000B0C0C0C0D0D0D0E0E0E0F0F0F101011AA
:100870001111121213131414151516161717181830
:1008800019191A1A1B1B1C1D1D1E1E1F2020212298
:1008900022232424252626272829292A2B2C2D2DDE
:1008A0002E2F30313232333435363738393A3B3CFB
:1008B0003D3E3F404142434445464748494A4C4DEE
:1008C0004E4F50515354555658595A5B5D5E5F61B7
:1008D0006264656668696B6C6D6F7072737577784A
:1008E0007A7B7D7E8082838587888A8C8E8F9193A8
:1008F0009596989A9C9EA0A2A3A5A7A9ABADAFB1CF
:10090000B3B5B7BABCBEC0C2C4C6C9CBCDCFD1D4B3
:10091000D6D8DBDDDFE2E4E7E9EBEEF0F3F5F8FA59
:10092000FDFF98FFFF98FFFF98FFFF98FFFF98FFDC
:10093000FF98FFFF98FFFF98FFFF98FFFF98FFFFCA
:1009400098FFFF98FFFF98FFFF98FFFF98FFFF9821
:10095000FFFF98FFFF98FFFF98FFFF98FFFF98FFAA
:10096000FF98FFFF98FFFF98FFFF98FFFF98FFFF9A
:1009700098FFFF98FFFF98FFFF98FFFF98FFFF98F1
:10098000FFFF98FFFF98FFFF98FFFF98FFFF98FF7A
:10099000FF98FFFF98FFFF98FFFF98FFFF98FFFF6A
:1009A00098FFFF98FFFF98FFFF98FFFF98FFFF98C1
:1009B000FFFF000000000000000000000000000039
:1009C0000000000000000000000000000000000027
:1009D0000000000000000000000000000000000017
:1009E0000000000000000000000000000000000007
:1009F00000000000000000000000000000000000F7
:100A000000000000000000000000000000000000E6
:100A100000000000000000000000000000000000D6
:100A200000000000000000000000000000000000C6
:100A300000000000000000000000000000000000B6
:100A4000000098FFFF98FFFF98FFFF98FFFF98FFB7
:100A5000FF98FFFF98FFFF98FFFF98FFFF98FFFFA9
:100A600098FFFF98FFFF98FFFF98FFFF98FFFF9800
:100A7000FFFF98FFFF98FFFF98FFFF98FFFF98FF89
:100A8000FF98FFFF98FFFF98FFFF98FFFF98FFFF79
:100A900098FFFF98FFFF98FFFF98FFFF98FFFF98D0
:100AA000FFFF4AFFFF98FFFF98FFFF98FFFF4AFFF5
:100AB000FF4AFFFF4AFFFF98FFFF98FFFF98FFFFE5
:100AC00098FFFF98FFFF98FFFF98FFFF98FFFF98A0
:100AD000FFFF000000000000000000000000000018
:100AE0000000000000000000000000000000000006
:100AF00000000000000000000000000000000000F6
:100B000000000000000000000000000000000000E5
:100B100000000000000000000000000000000000D5
:100B200000000000000000000000000000000000C5
:100B300000000000000000000000000000000000B5
:100B400000000000000000000000000000000000A5
:100B50000000000000000000000000000000000095
:100B6000000083FFFF83FFFF83FFFF83FFFF83FFFF
:100B7000FF83FFFF83FFFF83FFFF83FFFF83FFFFF1
:100B800083FFFF83FFFF83FFFF83FFFF83FFFF835D
:100B9000FFFF83FFFF83FFFF83FFFF83FFFF83FFD1
:100BA000FF83FFFF83FFFF83FFFF83FFFF83FFFFC1
:100BB00083FFFF83FFFF83FFFF83FFFF83FFFF832D
:100BC000FFFF83FFFF83FFFF83FFFF83FFFF83FFA1
:100BD000FF83FFFF83FFFF83FFFF83FFFF83FFFF91
:100BE00083FFFF83FFFF83FFFF83FFFF83FFFF83FD
:100BF000FFFF11241FBECFEFDAE0DEBFCDBF12E052
:100C0000A0E0B1E0E4E8F3E702C005900D92A2385D
:100C1000B107D9F726E0A2E8B2E001C01D92AC39D5
:100C2000B207E1F70E94B3120C94C0390C94000093
:100C3000A3E0B0E0EEE1F6E00C949D36782E8091D2
:100C4000110187110DC020917106237030E0409191
:100C5000100150E081E02417350719F480E001C04D
:100C600081E0817080931501809176069091140146
:100C7000981739F08093140140E060E080E00E9412
:100C80008E2EF7E17F129DC0809113010E94431CBC
:100C9000192F90911501911121C06091750620E1E5
:100CA000620F08F46FEF80914306909144060E9412
:100CB000482F6AE070E00E948936892B39F50E943E
:100CC000D92EE0E38E9F9001112460911401832FAF
:100CD000932F990F990B0E94051C18C0282F30E004
:100CE0003B832A83E12EF12C8A819B818E159F05FF
:100CF0006CF4609114018A819B810E94051C4A81D9
:100D00005B814F5F5F4F5B834A83EECF91E09983B6
:100D100031C0871508F49FC398E1791250C38091C0
:100D200013010E94431C192F9091150191112EC39C
:100D30006091750620E1620F08F46FEF8091430621
:100D4000909144060E94482F65E070E00E94893629
:100D5000892B71F40E94D92EA0E38A9F900111245F
:100D600060911401832F932F990F990B0E94E11B1F
:100D700051E05983103380F00EC0471508F41EC1AE
:100D80007110DFC080911501882329F040E060E0F8
:100D900080E00E948E2E1982809113018F5F8093D4
:100DA0001301E981E111D5C682E08093160180919B
:100DB00015018111CEC67110CCC683E08093160157
:100DC000C8C6F71508F4CFC12BE072120CC08CE135
:100DD0009EE205C02AE07212EBC088E39EE20E9408
:100DE000082B8983D9CF271508F473C135E0731216
:100DF00048C0809113010E94431C9A83898300910B
:100E0000720610917306F0907406609175066695EF
:100E10006695669580914306909144060E94482FFE
:100E20000E94942E805887FD8195880F382F4F2D72
:100E3000349F312D1124832FB8010E94652F162F66
:100E4000072FF82E9A81A981A917A8F45981E52FB7
:100E5000F0E0DF01A95DBD4F8C91909114019823C2
:100E600031F02F2D412F602FCF010E94912E8981CB
:100E70008F5F8983E7CFB1E0B983903308F48CCFDB
:100E80008ACF371508F407C142E0741276CF8091FB
:100E900013010E94431C9A83898300917306109169
:100EA0007406F09072066F2D702F812F0E94652FAF
:100EB000E62ED72EC82E609175066F0D702F812FEC
:100EC0000E94652F162F072FF82EEA81F981FE1751
:100ED00090F5A9818A2F90E0FC01E95DFD4F3081FA
:100EE00020911401232359F030FF04C02F2D412FEE
:100EF000602F03C02C2D4E2D6D2D0E94912EB98197
:100F0000BF5FB983E2CF94E0791252C080911301A0
:100F10000E94431C9A83898300917306D0907406C3
:100F20002091750610E4129F112D1124EA81F98198
:100F3000FE1708F486C021E02983E03308F42CCFA3
:100F40002ACF51E0751234C0809113010E94431CD6
:100F50009A838983609172067091730680917406FA
:100F60000E94652F162F072FF82E4A81598154179A
:100F7000A8F42981E22FF0E0DF01A95DBD4F8C913B
:100F800090911401982331F02F2D412F602FCF0124
:100F90000E94912E39813F5F3983E7CF81E08983B9
:100FA000403308F4F9CEF7CEECE17E1609F459C2CD
:100FB000809113018F5F80931301F6CE83E0781246
:100FC000A2CF809113010E94431C9A8389830091D0
:100FD0007306D09074062091750610E4129F112DAF
:100FE00011245A818981851730F53981E32EF12C3E
:100FF000F701E95DFD4F9081809114018923B9F0DB
:10100000F701EE0FFF1FE853FE4F808182958F702E
:1010100060917206819F600D1124702F8D2D0E94AA
:10102000652F462F282F672FC7010E94912E4981D7
:101030004F5F4983D6CF91E09983503308F4ACCE0B
:10104000AACEA981EA2EF12CF701E95DFD4F90812E
:10105000809114018923D9F0F701EE0FFF1FE953A6
:10106000FE4F6081169FB0011124B5E0759567951C
:10107000BA95E1F780917206680F702F8D2D0E944E
:10108000652F462F282F672FC7010E94912EB98107
:10109000BF5FB9834BCFA8E07A1203C081E79EE21D
:1010A00007C0A71540F4F9E07F1294CE83E59EE2D5
:1010B0000E946F2B96CEB6E07B1203C089E99DE2B9
:1010C00005C0E7E07E1274CF8DE69DE20E94742A8F
:1010D00088CE31E1731203C08FE19FE2E9CF37156B
:1010E00000F14EE0741203C089E59DE2EFCF471591
:1010F00060F05CE0751203C08BE69DE2E7CF8DE007
:10110000781256CF82E69DE2E1CF9FE0791203C0CC
:101110008EE39DE2DBCFA0E17A124ACF8FE29DE21F
:101120005ECEB4E17B1203C081E09DE207C0B7153B
:1011300040F425E1721211C08FEC9CE20E94B82AA3
:1011400050CEE2E17E1203C08BE09EE2B1CFF3E12C
:101150007F122ECF87EF9DE242CE36E1731228CF69
:1011600081E99CE2EBCF43E274121BC080914706F9
:1011700021E0382F321B08F430E0832F69E57CE250
:101180000DC0B5E27B1214CF8091470621E0482FB5
:10119000421B08F440E0842F61E27CE20E94732944
:1011A00020CE471508F421C45DE17512E6C04091D8
:1011B00048035091490360914A0370914B03809119
:1011C000430690914406A0914506B09146068417C7
:1011D0009507A607B70708F4DECD809115018111A8
:1011E00007C0809113010E94431C092F898357C0B7
:1011F00040E060E080E00E948E2E00E010E00E945F
:10120000D92ED801AA0FBB1FAA0FBB1FBB83AA836D
:1012100081FF08C0A857BD4FFD01108211821282C4
:1012200013821DC00E94D92EF82E0E94D92EF0E8FC
:101230008F9FC00111247FE7790F2A813B812857B6
:101240003D4F3B832A836F2D809174060E94652F4A
:10125000AA81BB816D937D938D939C9313970F5FB0
:101260001F4F0033110559F6BCCFB9818B2F90E089
:10127000FC01E95DFD4F308120911401232361F0D1
:10128000FC01EE0FFF1FEE0FFF1FE857FD4F2281FD
:10129000408161810E94912EE981EF5FE983F981AC
:1012A000F01718F321E02983003308F01982003386
:1012B00008F472CD20E010E001501109822F90E077
:1012C00080179107CCF4DC01AA0FBB1FAA0FBB1F2C
:1012D000A857BD4F880F991F880F991FFC01E4572D
:1012E000FD4F40815181628173814D935D936D9378
:1012F0007C9313972F5FE2CF0E94D92E000F111F0E
:10130000000F111F81FF08C0F801E857FD4F108240
:1013100011821282138218C00E94D92E8A830E94E1
:10132000D92E30E8839FC00111247FE7790F085739
:101330001D4F6A81809174060E94652FD8016D93BC
:101340007D938D939C9313970E94522F0091430697
:10135000109144062091450630914606DC01CB01F0
:10136000800F911FA21FB31F8093480390934903DE
:10137000A0934A03B0934B030FCD571508F4E7C071
:101380008AE17812C6CC85EB9EE2A0CEE82FF0E091
:10139000FB83EA83E12EF12C4A815B814E155F05C8
:1013A0000CF0E6CC609114018A819B810E94E11BC4
:1013B0002A813B812F5F3F4F3B832A83EDCFA9E1F9
:1013C0007A12F6CD809113010E94431C9A8389837F
:1013D0000091730610917406F09072066091750684
:1013E00066956695669580914306909144060E94A5
:1013F000482F0E94942E805887FD8195880F682F72
:101400002CE0629F612D11246F0D702F812F0E949F
:10141000652F162F072FF82EAA81B981BA17A8F4C5
:101420008981E82FF0E0DF01A95DBD4F8C9190919B
:101430001401982331F02F2D412F602FCF010E94EE
:10144000912E99819F5F9983E7CFE1E0E983A033F3
:1014500008F4A2CCA0CCBBE17B12A6CD80E89CE234
:1014600035CE809113010E94431C192F40914306F1
:101470005091440660914506709146068091840221
:1014800090918502A0918602B091870284179507FA
:10149000A607B70708F058C00E94D92EF0E38F9F27
:1014A000C0011124292F332727FD3A953B832A8336
:1014B000F901E95DFD4F908180911401892309F4C0
:1014C00043C00E94D92E81FD0EC00E94D92E082F44
:1014D0000E94D92E30E8839FC00111247FE7790F45
:1014E0008091740603C080E070E000E0602F0E94ED
:1014F000652F462F282F672F8A819B810E94912E6E
:101500002091750630E1230F08F42FEF60E1822F60
:1015100090E00E94482FBC0184EF91E00E94893640
:101520008091430690914406A0914506B0914606ED
:10153000860F971FA11DB11D809384029093850291
:10154000A0938602B093870241E0498313CCF0E276
:101550007F12C6C06090740683E0689EA0011124CB
:1015600056954795569547955B834A839A8199830B
:10157000862C912C8FEF90E0B4010E949039362E8A
:1015800080911501882371F040E060E080E00E94C6
:101590008E2E84E5EFE7F3E0DF011D928A95E9F7EF
:1015A00010927E0380917D038F5F80937D033FE7E0
:1015B000E32E33E0F32E43E7A42E41E0B42E55E8AA
:1015C000452E53E0552EEA81FB818E1A9F0A870132
:1015D0006501212C21100CC080917E03811108C06F
:1015E0000E942037853595401CF4D7016C920CC0C1
:1015F000F8018081882341F0861530F490917D03B5
:10160000391202C081508083D601EC91EF3F29F15D
:10161000D8012C91F0E0B981B21790F430E04A8102
:101620005B81241B350B249FC001259F900D349FA7
:10163000900D1124B4010E948936262F462D0AC030
:10164000629EC00111246A817B810E948936462FE7
:1016500020E060E0CF010E94912E239456E0C50E59
:10166000D11C0A5F1F4F8EE02812B4CF9FEFE91AFA
:10167000F90AAFEFAA1ABA0A4E145F0409F0A7CF0D
:1016800080917D03381202C010927D0380917E0309
:101690008F5F8D3118F480937E037DCB10927E0393
:1016A00027EC33E08DE043ED53E09FEF960DADEC7A
:1016B000B3E0F9018D3021F46C91661201C09C9366
:1016C0006081661510F090836682319611964A17F4
:1016D0005B0781F78150265031098111E8CF5BCB40
:1016E000F71508F474C12EE17212CAC08091150179
:1016F000882329F040E060E080E00E948E2E8091F7
:1017000013010E94431C392E409143065091440618
:10171000609145067091460680917603909177031B
:10172000A0917803B091790384179507A607B707AE
:1017300008F09FC0609172067091730680917406E4
:101740000E94652F662E572E482E0CE413E0E3E727
:10175000F1E0FB83EA83B7EC8B2EB1E09B2EAA80ED
:10176000BB8065017801212CD7018C91F60188237B
:1017700071F08081242D462D652D90E00E94912EE0
:10178000D50115968C91242D462D652D0DC0808197
:1017900020E040E060E090E00E94912ED501159697
:1017A0008C9120E040E060E090E00E94912EF701F3
:1017B0008181D7018D937D012394BFEFCB1ADB0A82
:1017C000E1E0AE1AB108F2E02F12CECFD8011296A6
:1017D0008C91EA81FB81882379F08281242D462D2A
:1017E000652D90E00E94912EAA81BB8113968C9169
:1017F000242D462D652D0EC0828120E040E060E062
:1018000090E00E94912EAA81BB8113968C9120E0DA
:1018100040E060E090E00E94912E0E94D92E8370FB
:1018200091E009F090E0F80192830D5F1F4F2A814B
:101830003B812A5F3F4F3B832A838216930609F040
:101840008ECF0E94522F00914306109144062091A2
:10185000450630914606DC01CB01800F911FA21F87
:10186000B31F8093760390937703A0937803B0938C
:10187000790331E039834FE2431508F08DCA8BCAF2
:101880003FE1731295CB809113010E94431C282ED7
:10189000492E80911501882361F040E060E080E0EE
:1018A0000E948E2E84E5EFE7F3E0DF011D928A951A
:1018B000E9F780911301811115C080917B0390910C
:1018C0007C030E94CE1A21E08931910508F420E0C2
:1018D00020937A03499730F00E94E91A90937C0391
:1018E00080937B0373E7C72E71E0D72EEFE7EE2ED0
:1018F000E3E0FE2EFDEC8F2EF3E09F2E512CAAEAA2
:101900003A2E00E010E0F601E00FF11FB081B9833C
:10191000B21508F442C0B41508F03FC05394EB2F41
:10192000F0E0FB83EA83E95DFD4F90818091140133
:10193000892309F432C05701A00EB11ED5016C9065
:10194000362D25E5321B08F430E070917306232D07
:10195000462D240F08F42FEF4091740652E0259F86
:10196000200D11242E5F249F212D1124632D631B34
:10197000822F0E94652F462F282F672F8A819B81F7
:101980000E94912E80917A03882339F0262D31E030
:10199000231B08F420E0D5012C930F5F1F4F063066
:1019A000110509F0B0CF8E149F0451F0B6E0CB0EB4
:1019B000D11CE6E0EE0EF11CF4E0F51508F0A1CF25
:1019C00021E029833FE2341508F0E6C9E4C941E289
:1019D000741203C089E79CE205C052E27512E8CA9E
:1019E00082E79CE20E940A2AFCC989E278120BC0B5
:1019F0008091470621E0382F321B08F430E0832F16
:101A000067ED7BE2CBCB871518F196E2791203C024
:101A100061E27CE207C0971538F0A4E27A12B1CBFC
:101A200069E57CE280E0BACBE7E27E120BC08091F0
:101A3000470621E0582F521B08F450E0852F6FEE27
:101A40007BE2ACCBF8E27F12B3CA6FEE7BE2EACF67
:101A50002CE2721203C061EC7BE2E4CF2715A0F008
:101A60003AE2731203C067ED7BE2DCCF4BE2741203
:101A70009FCA8091470621E0482F421B08F440E0AE
:101A8000842F61EC7BE28ACB5DE275122EC08091DF
:101A900013010E94431C9A8389836091740670E04D
:101AA00080E090E00E94953820E030E04FE753E47A
:101AB0000E94F4376B017C019A81A981A91708F073
:101AC000DAC920E030E0A901C701B6010E9423393C
:101AD0000E946638262F462F5981852F90E00E945C
:101AE000912E89818F5F8983E7CF8FEF781260CA4B
:101AF0008091430690914406A0914506B091460618
:101B000088279C70AA27BB272AE0B695A7959795AA
:101B100087952A95D1F782309105A105B10571F01D
:101B200083309105A105B10569F040E00197A10559
:101B3000B10511F060E008C064E102C044E160E07A
:101B400080E003C044E164E184E10E948E2E82E0E3
:101B500035C92396E2E10C94B936A0E0B0E0E3EB9E
:101B6000FDE00C94A636FC018481882309F4F6C4B8
:101B70008F0121E0408151816281738195810E94B2
:101B80002630EC01F8018581C115FEE7DF0759F029
:101B9000C1302EE7D20709F440C0C03298E7D90718
:101BA00009F075C05CC0882309F4DCC090915F0423
:101BB00081E0890F8770987F853020F4892B80938E
:101BC0005F0402C090935F0480915F048770EFEF21
:101BD0008E9FC00111249595879595958795992796
:101BE000909389008093880090938B0080938A0063
:101BF00090938D0080938C0040915F04509160041D
:101C000060916104709162048FE090E00E947F37E0
:101C100080915E040E948731A5C0882309F4A2C088
:101C200080915F0483FB222720F991E0922790FBAB
:101C300083F980935F04992329F040E060E080E01D
:101C40000E948E2E40915F04509160046091610467
:101C5000709162048FE090E00E947F3783C08823F8
:101C600009F479C190917606809170069F3F59F4EE
:101C70001092760681608093700640E060E080E01C
:101C80000E948E2E68C19FEF9093760661C0FE0180
:101C9000E250FE47EA30F10508F064C0EA5AFF4F0F
:101CA0000C94A439882309F45DC088EB91E011C03D
:101CB000882309F457C088EA91E00BC0882309F40F
:101CC00051C082E991E005C0882309F44BC08CE73C
:101CD00091E00E94BD2846C0882309F443C082E7F2
:101CE00091E0F7CF8823F1F188E691E0F2CF8823E5
:101CF00009F431C131C0882309F42DC181E00E946B
:101D0000401C4FEF6FEF8CEA90E00AC0882309F483
:101D100022C181E00E94401C40E86FEF86E590E020
:101D20000E94AD2818C1882309F415C181E00E94E2
:101D3000401C4FEF6FEF8BE190E0F2CF9091710676
:101D400081E08927809371061092160180917006B8
:101D5000816080937006FFC081E001C085E00E9431
:101D6000401CF9C0F8018581882309F406C1CE0121
:101D70009057839708F0DBC084E090E00E945737CB
:101D80009093B3058093B205FE01E150F047E23233
:101D9000F10520F4E05AFF4F0C94A4398091B2056C
:101DA0008160ACC08091B3058860B4C08091B205F9
:101DB0008260A4C08091B20520C08091B205886085
:101DC0009DC08091B3051EC08091B3058260A2C002
:101DD0008091B205806192C08091B20580628EC010
:101DE0008091B20580648AC00E94F2338091B2056E
:101DF000806884C08091B205886084607FC08091D3
:101E0000B3058260816086C08091B2058E7F76C006
:101E10008091B305877F7EC08091B2058D7F6EC0B3
:101E20008091B20520C08091B205877F67C0809104
:101E3000B3051EC08091B3058D7F6CC08091B20543
:101E40008F7E5CC08091B2058F7D58C08091B205B5
:101E50008F7B54C00E94F2338091B2058F774EC0C1
:101E60008091B205877F8B7F49C08091B3058D7FBC
:101E70008E7F50C08091B20582FB222720F991E02D
:101E8000922790FB82F990FB83F938C08091B305CB
:101E9000982F909591708E7F892B90FB81F93AC095
:101EA0008091B20586FB222720F991E0922790FBD2
:101EB00086F924C00E94F2338091B20587FB222765
:101EC00020F991E0922790FB87F918C061E001C0EA
:101ED00060E08EE090E00E946D371EC08091B205F8
:101EE00084FB222720F991E0922790FB84F906C019
:101EF0008091B205982F909590FB80F98093B20560
:101F00000BC08091B30583FB222720F991E0922733
:101F100090FB83F98093B3056091B2057091B3058E
:101F200084E090E00E948B370E94F23314C0C631E7
:101F30002CE7D20709F06CC080913C068A7A91E0C8
:101F400009F490E09093D303811106C389E20E94C3
:101F50004C1B0E947B2580911106877009F4FEC2FC
:101F6000F8018581882309F4F9C28091B30582FFC5
:101F7000F5C282E00E94CD25F1C2C631FCE7DF0741
:101F800009F4A4C280913C068272FE01E052F84737
:101F9000E531F10508F056C0EE57FF4F0C94A43917
:101FA00041E15AE16BE17AE12CC04BE15AE161E198
:101FB0007AE127C04DEF59E167E07AE122C047E0BE
:101FC0005AE16DEF79E11DC043EE59E160EF79E12F
:101FD00018C040EF59E163EE79E113C049EC59E1D3
:101FE00066ED79E10EC046ED59E169EC79E109C091
:101FF0004EEF57E16CE078E104C04CE058E16EEF41
:1020000077E10E94DA1BA7CF8DE0A9CE82E1A7CEAF
:10201000C330FCE7DF0709F489C208F461C2CB359D
:10202000ECE7DE0709F496C2CC35FCE7DF0709F0E0
:1020300069C28091B30582FB882780F991E08927E6
:102040000E94E425F8018581C081D181882349F06F
:10205000CE010E940933F82E682FCE010E947933F9
:1020600004C0CE010E944533F82EBE018F2D0E9480
:102070003A240E945724F82EC92FC82EF801D58182
:10208000E680E2949FE0E92280911106877001F1D9
:10209000DD23F1F08C2F807F803469F080E28F0D9A
:1020A0008830B0F08C2F807E803229F4F1E0FF156B
:1020B00078F4EE2069F08091B30582FF09C082E0D8
:1020C0000E94CD25809111068770DD24D394811163
:1020D000D12CBC2EB2948FE0B8228B2D90E08C30A6
:1020E000910508F0CBC1FC01E956FF4F0C94A439CF
:1020F0008C2F807FCF70882311F0C295C07FDD23A5
:10210000B9F0CC2309F4A8C180E28F0D883010F01B
:10211000C11006C090913C06C92BC0933C0605C077
:1021200090911306C92BC09313060E947B2594C17E
:102130008F2D0E942534CC2309F4A0C180E28F0D9D
:10214000883088F1CC2079F1C09590911306C9238D
:10215000C09313062BC08C2F807FCF70803211F07C
:10216000C295C07F8F2DCC2029F021E0C21609F442
:102170004CC055C08091B30582FD1BC0DD2369F0C2
:10218000CC2339F090913C06C92BC0933C060E94A9
:102190007B2580E00E944F3471C180E00E9425348D
:1021A000CC2309F46BC18C2F0E9474250E947B25DF
:1021B00065C1DD2381F0EE20B1F181E0E8125EC15E
:1021C000909112068C2F8923C81709F457C1C92B87
:1021D000C093120653C1E11051C18C2F0E941434D8
:1021E000809112069C2F982329F09C2F909589238B
:1021F000809312062091D4038C2F822309F43EC1D0
:10220000C0952C232093D40339C1DD2329F091E01C
:102210009E1508F433C107C0E11030C115C0DD239D
:1022200031F0E11019C18C2F0E941B3427C1EE2020
:1022300059F0893309F01FC1EFEFF7EE23E0E150C9
:10224000F0402040E1F715C18C2F0E94143416C1D4
:102250008C2F86958695837019F0813061F00EC1C0
:10226000DD2321F08F2D9C2F937002C080E090E041
:102270000E94A81B09C1DD2321F08F2D9C2F937094
:1022800002C080E090E00E94831BFEC08C2F837010
:10229000A9F5D111F7C04F2D429546954770440FCF
:1022A000440F8F2D8F7090E09C01042E01C0220FEF
:1022B0000A94EAF7F4FE08C08FE090E001C0880FAE
:1022C0004A95EAF7809501C080E0C695C695C3702F
:1022D000C23069F088F49091E303C13019F0822B89
:1022E000892302C0922B892B0E94CC33CBC0822B36
:1022F0009091E3038927F8CF822BF6CFDD2319F0E5
:102300008C2F817001C08695882309F4BBC04F2DA6
:10231000429546954770440F440F8F2D8F7090E083
:102320009C01042E01C0220F0A94EAF7F4FE08C0B3
:102330008FE090E001C0880F4A95EAF7809501C0D0
:1023400080E0C695C695C370C23059F078F490917C
:102350005E04C13019F0822B892309C0922B892B8E
:1023600006C0822B90915E04892701C0822B0E94B7
:10237000AE3388C0CF70DD2339F08C2F0E94C0337C
:102380008F2D0E941B347EC08F2D0E9414348C2F01
:102390000E94B33377C08F2D92EFC91669F19C1557
:1023A00038F0E0EFCE1659F0F1EFCF1601F150C042
:1023B00023EFC21641F194EFC916A9F049C0DD23FD
:1023C00069F0E1105BC0CF7181E090E001C0880F3F
:1023D000CA95EAF790915E0489271FC0E1E0EE15E7
:1023E00008F44CC0F0CF8091B30582FD19C0DD2305
:1023F00029F08C2F8F711FC0DD23D9F38C2F8F71A3
:102400000E94B3333BC0DD2339F0CF7181E001C0BE
:10241000880FCA95EAF701C080E00E94AE332EC053
:10242000DD2361F08C2F8F71F8E08F9F90011124D4
:102430002360209311060E94C03320C081E00E94D7
:10244000CD2521E02E15D0F482E00E94CD2516C0C6
:10245000DD2321F0EE2069F28F2D9CCEEE2071F26B
:10246000893349F48FEF97EEE3E081509040E040EC
:10247000E1F700C000008F2D0E94253488EF8B0DFE
:10248000843010F40E94CD1BDD20A9F0809111064C
:1024900080FD11C0F80115828695869586950E946B
:1024A000C033C8010E94AD0D8091110686958695B6
:1024B00086950E94B33320E0F8014081518162810A
:1024C0007381848195810E94263048C08091D30316
:1024D000811104C089E20E941E1B3BCD85E3FBCF26
:1024E000C1158CE7D807A1F0C130DC4709F0AACDAF
:1024F0000E94F233FFEF24E38CE0F1502040804053
:10250000E1F723C0CA35DC4709F09CCD81E098CDC6
:102510000E94F2338FEF94E3ECE081509040E04072
:10252000E1F700C000000E94761A15CD6FEF7FEF33
:1025300080E090E00E948B370E94F2339FEFE4E34B
:10254000FCE09150E040F040E1F700C000000E9444
:102550006B1A01CD80E074CD85E3F9CCCDB7DEB741
:10256000E9E00C94C236A3E5B0E0E9EBF2E10C94AB
:102570009D3685B7806885BF85B7806885BF84B77D
:10258000877F84BF0FB6F894A8958091600088611A
:1025900080936000109260000FBE90E080E80FB65C
:1025A000F89480936100909361000FBE87E093E2FE
:1025B00090938302809382020E9483210E94A22131
:1025C0008091E20084608093E20078948091C60557
:1025D0008823A1F01091E9001F709091EC00892FE1
:1025E000817090FD80E8182B1092E9008091E8003E
:1025F00083FD0E94681E1F701093E90082E084BD75
:1026000093E095BD9AEF97BD80936E000E94C4320F
:1026100090E090930F0180930E010E9439320E9446
:102620009F32E5EDF3E0A4EEB3E011921D9223E0BA
:10263000E33EF207D1F780E090E00E945737853EF5
:102640009E4F09F46EC065EE7EEF80E090E00E9440
:102650008B3760E082E090E00E946D3781E08093EC
:10266000E30361E083E090E00E946D3760E074E195
:1026700084E090E00E948B3760E086E090E00E946A
:102680006D3760E087E090E00E946D3740E050E0F9
:10269000BA0188E090E00E947F3760E083E290E03A
:1026A0000E946D3760E08CE090E00E946D3760E042
:1026B0008DE090E00E946D3719821A821B821C8285
:1026C0001D821E821F82188648E050E067E170E09C
:1026D000CE0101960E945D3740E050E0BA018FE1E3
:1026E00090E00E947F3710925F0410926004109275
:1026F00061041092620484E080935F0440915F045F
:102700005091600460916104709162048FE090E0E8
:102710000E947F3740E050E0BA0183E190E00E94E0
:102720007F3782E090E00E9449378093F20384E093
:1027300090E00E9457379093B3058093B2050E94B2
:1027400009288FE39CE90197F1F700C000000E947F
:1027500009288091E40380FF08C06FEF7FEF80E0DD
:1027600090E00E948B370E94761A83E090E00E94EE
:1027700049370E94CC3380915E040E9487310E94C9
:10278000E31810924706E0E6F6E080E796E02FEFC8
:102790003FEF219331938E179F07D9F710923104A1
:1027A000EAE4F4E08FEF9FEF81939193A4E0EA35A0
:1027B000FA07D1F781E08093700648E050E067E1C6
:1027C00070E081E796E00E943937109270068091A0
:1027D00071068C7FF9F485E380937106809119016D
:1027E00090911A01A0911B01809372069093730639
:1027F000A09374068FE7809375068FEF809376061B
:1028000048E050E067E170E081E796E00E945D37C4
:102810001092700689EA8093800089E0809381009D
:1028200024982C983F98479A54985C9A55985D9AAA
:102830006E98769A569A8FE090E00E945137609396
:102840005F047093600480936104909362046770E6
:102850001FEF169FB00111247595679575956795C3
:102860007727709389006093880070938B00609342
:102870008A0070938D0060938C005E980E947A317C
:102880000E9476310E9472318FEF90E09093890020
:102890008093880090938B0080938A0090938D00A2
:1028A00080938C000E948431BFEFE0E7F2E0B150EA
:1028B000E040F040E1F700C000000E9481312FEFBE
:1028C00030E742E0215030404040E1F700C00000D6
:1028D0000E947E315FEF80E792E05150804090404F
:1028E000E1F700C000000E947A31AFEFB0E7E2E00C
:1028F000A150B040E040E1F700C000000E947631F6
:10290000FFEF20E732E0F15020403040E1F700C017
:1029100000000E94723180915F048770189FC0018F
:10292000112495958795959587959927909389007A
:102930008093880090938B0080938A0090938D0001
:1029400080938C005E980E947A310E9476310E94BA
:10295000723180917106883B18F080E00E94401C23
:1029600080917106837011F41092160180917106A6
:102970008C7F816080937106809170068160809366
:10298000700684E091E09093AF058093AE0580914E
:10299000C605853009F073C030E4E32E02EF13E082
:1029A000DD24D39443E0C42E50E1F52E8091C6057A
:1029B000853009F05EC08091C605843009F438C0C6
:1029C0000E944D1C8091630481110DC00E94180665
:1029D00010921101809171068370809310010E9402
:1029E0001A18C0921601D09263041092B40548E1FF
:1029F00050E00FB6F894A895409360000FBEE092A7
:102A0000600083B7817F846083BF83B7816083BFA9
:102A10007894889583B78E7F83BF0FB6F894A89576
:102A200080916000886180936000109260000FBE0A
:102A30008091C505882309F4B9CF0E94C43290E083
:102A400090930F0180930E010E9439320E949F32B1
:102A5000E4EEF3E011920E171F07E1F70E94092838
:102A6000E4EEF3E081918111AFC20E171F07D1F799
:102A70009DCF0E94F2330E94CD1B109263040E94EE
:102A8000092883EF93E02A969FAF8EAF2A97A4EE92
:102A9000B3E0FC0191918D91892794E0E130F90731
:102AA00019F08823B9F305C0811103C00E94E527FE
:102AB000A6C12FE7222E23E0322EA3E7B1E02C9609
:102AC000BFAFAEAF2C97E4EEF3E06096FFAFEEAF92
:102AD0006097D12C6096AEADBFAD60977D9060964B
:102AE000BFAFAEAF60972A96EEADFFAD2A97A0803C
:102AF000A7242E96AFAE2E97AA2009F45BC15101F0
:102B00002C964EAC5FAC2C97C12C662463942E9609
:102B10008FAD2E97862109F43DC1862C8720229601
:102B2000CFAE22972396DFAE23970E94E91A25960F
:102B30009FAF8EAF259781E026968FAF269791E0C5
:102B4000811001C090E027969FAF279722964FAD46
:102B5000229723965FAD239724966FAD24972596F1
:102B60007FAD259726968FAD26970E944B30882003
:102B700051F0D2018C918F3F31F02D968FAF2D9770
:102B80009924939401C0912C092D10E08091310477
:102B9000F801E80FF11D3997ACF188E090E07C0175
:102BA000E01AF10AB8016F5F7F4F6F5C7B4FA7019E
:102BB00082E394E00E94B739B801675F7F4F6F5C92
:102BC0007B4FA7018AE394E00E94B739A701440F25
:102BD000551FB801660F771F675E7F4F6F5C7B4F95
:102BE0008AE494E00E94B739B8016F5E7F4F6F5C52
:102BF0007B4FA70182E494E00E94B73988E08919ED
:102C0000809331048091310490E02D96FFAD2D9793
:102C1000AF2FB0E09D01220F331F29533E4FAA0F63
:102C2000BB1FBD0168537E4F41E0480F9915C0F4AA
:102C300090E0FC01EF5CFB4FD9015C915183DB011B
:102C40005C9151872D96BFAD2D97B18B880F991F41
:102C5000FC01EF5CFB4F128E118E91E0842FE4CFCC
:102C600080933104882009F495C0809171068C7F8F
:102C70008C3709F08FC0F20180818F3F09F48AC040
:102C800073E7872E71E0972EEFE7EE2EE3E0FE2E3E
:102C900028961FAE289790E09C01220F331FA901B0
:102CA00049535E4F62965FAF4EAF6297D901A8530A
:102CB000BE4F6496BFAFAEAF649700E010E0F40182
:102CC000E00FF11F80818F3F09F44EC02896BFAD01
:102CD0002897DB120AC0C01208C0F501208130E23B
:102CE000230F08F42FEF20833FC090E06296EEADF3
:102CF000FFAD6297408150E0FC01EE0FFF1FE953EA
:102D0000FE4F2081421B51096496AEADBFAD649762
:102D10002C9130E0880F991FFC01E853FE4F808111
:102D2000281B3109449FB001459F700D700D11247F
:102D3000229FC001239F900D900D1124860F971F95
:102D40000E94EE2E893280F428E2382F231B08F4EB
:102D500020E0F701E00FF11F213108F020E1308180
:102D6000320F08F43FEF30830F5F1F4F063011051D
:102D700009F0A5CF28964FAD28974F5F28964FAF03
:102D8000289756E0E50EF11C86E0880E911C4E3027
:102D900009F093CFC394660C9FEF491A590AAFEF1D
:102DA000AA1ABA0AB6E0CB12B2CE2A96EEADFFADA1
:102DB0002A977082D3942A962EAD3FAD2A972F5F23
:102DC0003F4F2A963FAF2EAF2A972C964EAD5FAD60
:102DD0002C974A5F5F4F2C965FAF4EAF2C9756E013
:102DE000250E311C8EE0D81275CE0E94DD1A60933C
:102DF0002D0470932E0480932F04909330040E942E
:102E00004D1C0E94CD1B90910104891721F08093E5
:102E100001040E94DD1A8091C605843009F0B7CD07
:102E200083E08093E9008091E80082FFB0CD80913B
:102E3000E80085FF22C00E94D42281111CC000E25C
:102E400010E07E0191E2E90EF11C08C08091F100D2
:102E5000D7018D937D010150110969F08091E8003F
:102E600085FDF4CF8091E8008B778093E8000E9485
:102E7000D422882399F391E001C090E08091E8008A
:102E80008B778093E800992309F481CD89A186305E
:102E900009F479C0B0F4823009F479CD60F4882364
:102EA00029F1813009F08CC08093020484E0898389
:102EB0008EEF8A837CC0843031F1853009F463C0A1
:102EC0007FC0893009F45FC030F4873099F18830D1
:102ED00009F459C075C08A3009F457C08E3F09F013
:102EE0006FC0898394E09A838B8361C019828DE0DF
:102EF000ECE1F1E0DE01129601900D928A95E1F786
:102F00008EEF8E8754C080910204882309F43FCD50
:102F10008AA1811104C08BA10E94B33338CD81E016
:102F200090E00BA002C0880F991F0A94E2F70E945C
:102F3000AE332DCD81E0809304048AA18230C1F0AC
:102F400000F5882319F0813051F01BC08BA1882334
:102F500019F00E9484311BCD0E947A3118CD8BA1CB
:102F6000882319F00E94813112CD0E9476310FCD55
:102F70008BA1882319F00E947E3109CD0E94723105
:102F800006CD85E01EC084E01CC08AA111E081113D
:102F900001C010E010930404811106C00E947A3130
:102FA0000E9476310E9472318BE089831A8340E25D
:102FB00050E0BE016F5F7F4F82E00E94261AE7CC8F
:102FC0008FEF0E94D831E3CCF9BC82E189BD09B40E
:102FD00000FEFDCF8091D8008F7D8093D800809136
:102FE000E00082608093E0008091E00081FDFCCFF2
:102FF0000E94F233DBCC8091BB050895E1E7F6E057
:10300000248130E1231B08F420E0248380917006A2
:103010008160809370060895E1E7F6E0248130E155
:10302000230F08F42FEF2483809170068160809332
:1030300070060895A0E0B0E0E0E2F8E10C94A53657
:1030400084EFC82E84E0D82E99E2A92E91E0B92E03
:10305000E12CF12CF60180818823C1F0C0E0D0E0A2
:10306000A7014C0F5D1F4C595B4F6C2F6C5DF50138
:10307000808103E010E020E130E0880F0E94A2355B
:103080006096C039D10561F7F6011082F4EACF0EDF
:10309000D11C84EAE80EF11CEFEFAE1ABE0AF8E488
:1030A000EF16F1E0FF06B1F6CDB7DEB7EAE00C941B
:1030B000C136A1E0B0E0EFE5F8E10C94AB3649830E
:1030C000E82FF0E0E75DFE4F808103E010E021E0B3
:1030D00030E0AE014F5F5F4F880F0E94A23521960E
:1030E000E4E00C94C736A4E0B0E0E9E7F8E10C9422
:1030F000AA368033910508F049C0122F042FF62E0E
:10310000BC01660F771F660F771F68537E4F44E040
:1031100050E0CE0101960E943037898183702A8168
:1031200030E0682F70E044EA849FC00111248C597C
:103130009B4FFC01E20FF31FE0815B814C81EF119B
:103140000CC0FC01E50FF11DE081E01306C0FC019D
:10315000E40FF11D80818117C9F0E4EAE69FC00108
:10316000E79F900D11248C599B4FFC01E20FF31F38
:10317000F082FC01E50FF11D0083FC01E40FF11D5D
:103180001083FC01E057FF4F21E020832496E5E007
:103190000C94C636FF920F931F93CF93DF93182F93
:1031A000062FF42EC0E0D0E02F2D402F612FCE014E
:1031B0000E9473182196C033D105B1F7CDB7DEB7A1
:1031C000E5E00C94C636A4E0B0E0E9EEF8E10C943A
:1031D000A5360E94253510E04BE06DEF812F0E944F
:1031E000591840E06AE0812F0E9459188FE39CE94A
:1031F0000197F1F700C0000040E060E0812F0E94DD
:10320000591840E061E0812F0E94591840E066E0C3
:10321000812F0E94591840E06DEF812F0E945918AC
:1032200000E040E0602F812F0E9459180F5F0231AB
:10323000C1F740E0602F812F0E9459180F5F0432C0
:10324000C1F740E0602F812F0E9459180F5F043BA7
:10325000C1F74BE06DEF812F0E94591841E06AE001
:10326000812F0E94591840E06DEF812F0E9459185C
:103270001F5F123009F0B0CF08EC11E098E8C92EBA
:1032800092E0D92E24EAA22EEE24E394F12CBB2462
:10329000B39444E050E0B801CE0101960E9430376B
:1032A0004A813B812C8189818370542F5695569594
:1032B0005695A89EC00111248C599B4FFC01E50F27
:1032C000F11DEF56FF4F4770B70102C0660F771F21
:1032D0004A95E2F7AB015081452B4083432F469539
:1032E00046954695FC01E40FF11DEF56FF4F3770F0
:1032F000A70101C0440F3A95EAF73081432B408380
:10330000322F369536953695FC01E30FF11DEF56B9
:10331000FF4F2770A70102C0440F551F2A95E2F7FF
:103320009A013081232B2083FC01ED55FF4FB082A1
:103330000C5F1F4FC016D10609F0ABCF84E6C82E34
:1033400084E0D82EF12C560153EAA50EB11CF501EC
:103350008081882399F000E010E0F801EF56FF4FDC
:10336000EC0DFD1D4081602F8F2D0E9459180F5FBD
:103370001F4F0231110589F7F5011082F394F4EA29
:10338000CF0ED11C42E0F412DECF2496EAE00C947A
:10339000C136E1E7F6E0438120E1421B08F440E05A
:1033A0008181628190E00E94AD280895E1E7F6E016
:1033B000438120E1420F08F44FEF8181628190E068
:1033C0000E94AD280895E1E7F6E0628120E1621BEA
:1033D00008F460E08181438190E00E94AD28089567
:1033E000E1E7F6E0628120E1620F08F46FEF81818E
:1033F000438190E00E94AD280895E1E7F6E08181E5
:1034000090E04381628108970E94AD280895E1E72A
:10341000F6E0818190E04381628108960E94AD28A8
:1034200008958091710686958695815009F48DE204
:103430000E949428089580917106869586958F5FE5
:103440008E3208F081E00E94942808950F931F9314
:10345000CF93DF938B01EA019091C6059430A9F5D3
:103460008F708093E9008FEF9091E800815095FD77
:1034700006C095ED9A95F1F700008111F5CF809186
:10348000E80085FF22C00E94D422811115C0209738
:1034900089F08091E80085FD06C08091E8008E7774
:1034A0008093E800F0CFF80181918F018093F100C3
:1034B0002197EDCF90E001C0982F8091E8008E77A2
:1034C0008093E80081E0911101C080E0DF91CF910D
:1034D0001F910F9108959AE088E10FB6F894A8958E
:1034E000809360000FBE90936000FFCFF89481E05E
:1034F0008093E00080E28093D800E9ECF0E0108255
:103500008FE19EE40197F1F700C000001DBA109210
:1035100068001CBC10BE1FBA10927A0010926E0098
:1035200010926F0010927100109272001082ECEBFA
:10353000F0E0108214B817B81AB81DB810BA10828B
:1035400015B818B81BB81EB811BA0C94003F0895EE
:1035500078941F920F920FB60F9211248F939F931E
:10356000AF93BF938091B5059091B605A091B70533
:10357000B091B8050196A11DB11D8093B50590933A
:10358000B605A093B705B093B805BF91AF919F91D1
:103590008F910F900FBE0F901F9018959C014FB701
:1035A000F8948091B5059091B605A091B705B091BA
:1035B000B8054FBF821B930B08952FB7F894609105
:1035C000B5057091B6058091B7059091B8052FBFEC
:1035D00008952FB7F8948091B5059091B605A09104
:1035E000B705B091B8052FBF08951F920F920FB67F
:1035F0000F9211248F939F93AF93BF938091B40543
:10360000811113C08091B5059091B605A091B705C1
:10361000B091B8054196A11DB11D8093B505909359
:10362000B605A093B705B093B805BF91AF919F9130
:103630008F910F900FBE0F901F90189590911201CF
:10364000992321F09091B20597FD03C0E5E0F4E0E5
:103650001DC0E82FE695E695E695EE31E0F4F0E042
:10366000E35FFB4F877021E030E0A90102C0440F07
:10367000551F8A95E2F7CA0180959281892382833A
:103680000895319654E0EB30F50729F092818913C3
:10369000F8CF1282F6CF0895909112019923D1F0BC
:1036A0009091B20597FF16C0E82FE695E695E6954E
:1036B000EE3140F5F0E0E35FFB4F877021E030E052
:1036C000A90102C0440F551F8A95E2F7CA019281F1
:1036D000892B16C0A7E0B4E0EFEF90E02D918217A0
:1036E00089F0EF3F19F4211101C0E92F9F5F963057
:1036F000A9F7EF3F39F00E2E000CFF0BEB5FFB4FED
:10370000828308950895A3E0B0E0E9E8FBE10C941A
:10371000AD362091B0053091B10528173907A1F0D9
:103720009093B1058093B005E091AE05F091AF059F
:10373000309751F024E029839B838A830084F185AC
:10374000E02DCE01019609952396E2E00C94C9364E
:10375000A3E0B0E0EEEAFBE10C94AD362091AC05BD
:103760003091AD0528173907A1F09093AD058093EE
:10377000AC05E091AE05F091AF05309751F023E034
:1037800029839B838A830084F185E02DCE010196F5
:1037900009952396E2E00C94C936E091AE05F091CC
:1037A000AF05309729F00190F081E02D099508953B
:1037B00080E00895882311F0FA0101C0FB0109950A
:1037C00008951F93CF93DF93FC01E95DFD4F2081A6
:1037D0006223B9F0EC010E94D92E182F0E94D92E35
:1037E00020E8829FC00111247FE7790F612F80912B
:1037F00074060E94652F462F282F672FCE010E9446
:10380000912EDF91CF911F910895A0E0B0E0EBE001
:10381000FCE10C94A836EC01FC01E95DFD4F9081C0
:10382000692349F1D09073060091740610917206D5
:10383000E12EF12C0E94D92E282FC7018C549F4FC6
:1038400068E671E00E9490398E199F0997FD0396F2
:1038500095958795959587952370612F289F600D85
:1038600011247D2D802F0E94652F462F282F672F32
:10387000CE010E94912ECDB7DEB7E7E00C94C4369E
:103880000E949428089594E0899F800D112495E06A
:10389000980F913308F090E308958F929F92AF9222
:1038A000BF92CF92DF92EF92FF92CF9380915A0412
:1038B00090915B04A0915C04B0915D042FB7F894E3
:1038C000C090B505D090B605E090B705F090B8056A
:1038D0002FBFC81AD90AEA0AFB0A0E94DD1A6093B0
:1038E0005A0470935B0480935C0490935D04A091F0
:1038F0003104E1E3F4E02A2F30E04FEF5FEF60E0C6
:1039000070E04C195D096E097F09A31799F0818D4C
:10391000928D4C01A12CB12C481559056A057B05E7
:1039200010F4215004C08C0D9D1D928F818F3F5F3C
:103930003296EBCF20933104809163048111E7C06C
:1039400040912D0450912E0460912F047091300409
:103950002FB7F8948091B5059091B605A091B70561
:10396000B091B8052FBF841B950BA60BB70B813EFA
:103970009349A440B10508F0CAC0C09171068C2FCC
:10398000837009F4C4C0C695C69580911601813034
:1039900029F138F0823009F481C0833009F48BC0FA
:1039A000B8C01092130180915A0490915B04A091C9
:1039B0005C04B0915D048093430690934406A09309
:1039C0004506B093460689E2E1E3F4E0A7E4B6E0F9
:1039D00001900D928A95E1F781E06AC08C2F0E94D8
:1039E0001806CC2309F495C080911601823009F0A5
:1039F0004FC080915F0483FD4BC080915E0490E0D6
:103A0000A0E0B0E0AC01BD0134E076956795579534
:103A100047953A95D1F7411551056105710521F496
:103A2000AC01BD0180E001C084E06A017B0122E0BD
:103A3000F694E794D794C7942A95D1F7C114D1048A
:103A4000E104F10419F08E5FB701A6017695679540
:103A500057954795452B462B472B09F08F5F8230B2
:103A600039F0843051F081110BC080E090E002C049
:103A700082E090E00E94F4300BC084E090E0FACF46
:103A800080917606811104C040E060E00E948E2E95
:103A90008091130181500E94431C3BC0C0931101CF
:103AA000809171068370809310010E941A1883E040
:103AB000809316012EC080917006882351F048E053
:103AC00050E067E170E081E796E00E945D37109278
:103AD00070064091430650914406609145067091EE
:103AE00046062FB7F8948091B5059091B605A09140
:103AF000B705B091B8052FBF841B950BA60BB70B6C
:103B00004A97A105B10528F01092160102C0C0E045
:103B10003CCFCF91FF90EF90DF90CF90BF90AF90D0
:103B20009F908F9008958091C80587FF11C0809164
:103B3000E80082FD05C08091C6058111F8CF11C053
:103B40008091E8008B770BC08091C605882349F0EF
:103B50008091E80080FFF8CF8091E8008E77809315
:103B6000E8000895982F973068F59093E90098172A
:103B700039F07091EC002091ED005091F00003C0FD
:103B8000242F762F50E021FD02C09F5FECCF3091B3
:103B9000EB003E7F3093EB003091ED003D7F3093A2
:103BA000ED003091EB0031603093EB007093EC004E
:103BB0002093ED005093F0002091EE0027FDE5CF1B
:103BC00080E008958F708093E90081E0089520914E
:103BD000CE053091CF052617370748F061157105DE
:103BE00039F42091E8002E772093E80001C0B90154
:103BF000FC0120E06115710579F18091C6058823EB
:103C0000F1F18530F1F18091E80083FD3CC08091B5
:103C1000E80082FD2EC08091E80080FFEBCF20916C
:103C2000F3008091F20090E0922B6115710551F044
:103C30008830910538F421912093F1006150710989
:103C40000196F3CF21E0089709F020E08091E80089
:103C50008E778093E800CECF2111CFCF0AC080911C
:103C6000C605882361F0853061F08091E80083FD0E
:103C70000AC08091E80082FFF2CF80E0089582E0E0
:103C8000089583E0089581E00895089543E050E0A9
:103C9000BC0184E00E94261A089540E250E0BC0175
:103CA00084E00E94261A0895CF93DF93EC0148E048
:103CB00050E0BC0181E00E94261A88E0FE01ACEBD6
:103CC000B5E001900D928A95E1F7DF91CF910895CB
:103CD000AAE2B0E0EEE6FEE10C94AC36E8ECF5E0EA
:103CE00080ED95E02091F10021938E179F07D1F789
:103CF0008091C905833009F463C030F4813071F0DC
:103D0000823009F49DC0B4C08A3009F489C08B3078
:103D100009F46EC0893009F0ABC020C08091C8059D
:103D2000813A09F0A5C08091E800877F8093E80080
:103D30008091CC059091CD05892B21F468E08CEB26
:103D400095E003C060E080E090E070E00E94E71D35
:103D50008091E8008B778093E8008AC08091C80545
:103D6000813209F085C08091CC059091CD050097F6
:103D700019F0029709F07CC08091E800877F80935A
:103D8000E8008091E80082FD05C08091C6058111A0
:103D9000F8CF6EC02091F3008091F20090E0922B5A
:103DA000029731F48091F100813011F0863021F4D6
:103DB0008091F1008093BB058091E8008B7754C01F
:103DC0008091C805813A09F053C08091CC0590914B
:103DD000CD05892B09F04CC08091E800877F809346
:103DE000E8008091E80080FFFCCF8091120137C08D
:103DF0008091C8058132E1F58091CC059091CD0587
:103E0000892BB1F58091E800877F8093E8000E94BC
:103E1000931D8091CA05809312010E94F23328C03D
:103E20008091C805813221F58091E800877F8093D9
:103E3000E8000E94931D8091CB058093BA0518C0BD
:103E40008091C805813AA1F48091E800877F809332
:103E5000E8008091E80080FFFCCF8091BA05809354
:103E6000F1008091E8008E778093E8000E94931D16
:103E70008091E80083FFEBC18091C8059091C9054E
:103E8000492F50E04A30510508F0E1C1FA01ED55E3
:103E9000FF4F0C94A439803821F0823809F0D7C143
:103EA00008C08091C4059091C505992389F082606E
:103EB0000FC08091CC058F70873008F0C8C1809307
:103EC000E9008091EB0085FB882780F91092E900DA
:103ED0009091E800977F9093E8008093F100109212
:103EE000F1007CC1282F2D7F09F0B1C1882319F082
:103EF000823061F0ACC18091CA05813009F0A7C160
:103F0000933009F080E08093C5052EC08091CA05EA
:103F100081112AC08091CC058F702FEF280F263099
:103F200008F095C18093E9002091EB0020FF1CC0B0
:103F3000933021F48091EB00806214C09091EB00EB
:103F400090619093EB0021E030E0A90102C0440FA2
:103F5000551F8A95E2F74093EA001092EA0080919B
:103F6000EB0088608093EB001092E9008091E800FC
:103F7000877F8093E8000E94931D69C1811167C10A
:103F80001091CA051F778091E3008078812B809380
:103F9000E3008091E800877F8093E8000E94931DF2
:103FA0008091E80080FFFCCF8091E30080688093DF
:103FB000E300111102C082E001C083E08093C605D6
:103FC00046C18058823008F042C12091CA05309124
:103FD000CB052C3D53E0350779F583E08A838AE2EF
:103FE00089834FB7F894DE01139620E03EE051E25A
:103FF000E32FF0E050935700E49120FF03C0E295D7
:10400000EF703F5FEF708E2F90E0EA3010F0C796B0
:1040100001C0C0968D939D932F5F243149F74FBF08
:104020008091E800877F8093E8006AE270E0CE012B
:1040300001960E94E71DC0C08091CC059091CD05EE
:10404000432F552743305105B1F068F441305105F5
:1040500009F40CC14230510509F0F9C08BE590E03C
:10406000EBE5F3E057C04132510589F14232510589
:1040700009F43CC0ECC0C901992781309105B9F021
:1040800070F082309105D9F0039709F0E0C0E8ECB8
:10409000F3E0E4918E2F90E0E8ECF3E038C0E6E244
:1040A000F4E0E4918E2F90E0E6E2F4E030C0ECEF33
:1040B000F3E0E4918E2F90E0ECEFF3E028C0E4EE23
:1040C000F3E0E4918E2F90E0E4EEF3E020C0833043
:1040D000910508F0BCC0880F991FFC01EC5CFE4FF5
:1040E0000190F081E02D89E090E014C083309105CB
:1040F00008F0ADC0FC01EE0FFF1FE25DFE4F019026
:10410000F081E02DDC01A55DBE4F8C9190E0009721
:1041100009F49DC02091E800277F2093E8002091BA
:10412000CE053091CF052817390708F4C90140E0C2
:10413000009789F12091C605222309F43DC025305E
:10414000D9F12091E80023FD37C02091E80022FD3D
:104150002FC02091E80020FFEBCF4091F300209189
:10416000F20030E0342B009759F02830310540F44C
:1041700044914093F100319601972F5F3F4FF3CF69
:1041800041E02830310509F040E02091E8002E7729
:104190002093E800CDCF4111CDCF0AC08091C60554
:1041A000882351F0853041F08091E80083FD04C000
:1041B0008091E80082FFF2CF8091E8008B778093B6
:1041C000E80045C0803809F042C08091E800877F50
:1041D0008093E8008091C7058093F1008091E8000A
:1041E0008E77C7CE811133C08091CA059091CB05DF
:1041F0009927029764F58091E800877F8093E80013
:104200001091CA051093C7050E94931D111106C095
:104210008091E30087FD02C081E001C084E08093CB
:10422000C60542E061EC81E00E94B21D42E261EC11
:1042300084E00E94B21D42E261EC82E00E94B21D65
:1042400042E260EC83E00E94B21D8091C60580913D
:10425000E80083FF10C08091E800877F8093E8002A
:104260008091EB0080628093EB0005C082E190E0DA
:10427000E6EBF3E04FCFAA96E3E00C94C8361F922A
:104280000F920FB60F9211242F933F934F935F938A
:104290006F937F938F939F93AF93BF93CF93DF934E
:1042A000EF93FF93C091E900CF708091EC00D82F7D
:1042B000D17080FDD0E81092E9008091F000877FF6
:1042C0008093F00078940E94681E1092E90080911B
:1042D000F00088608093F000CD2BCF70C093E90090
:1042E000FF91EF91DF91CF91BF91AF919F918F910E
:1042F0007F916F915F914F913F912F910F900FBEE2
:104300000F901F901895E8EDF0E080818E7F8083FC
:104310001092E2001092DA001092E100A0EEB0E0FC
:104320008C9181608C9380818F77808319BCA7EDFD
:10433000B0E08C918E7F8C9380818F7E80831092F1
:10434000B9050895A0E0B0E0E8EAF1E20C94A736E0
:10435000C8EDD0E088818F7E8883E7EDF0E0808132
:104360008160808384E082BF81E08093B905888189
:104370008E7F888302EE10E0F80110821092DA003E
:1043800081EEC82ED12CF601108288818F77888328
:1043900088818068888388818F7D888319BC10928A
:1043A000C6051092C7051092C5051092C40590EE7F
:1043B000E92EF12CF70180818B7F808388818160D9
:1043C000888342E060E080E00E94B21DF6018081B7
:1043D0008E7F8083F8018081816080838081886006
:1043E0008083F70180818E7F8083888180618883CC
:1043F000CDB7DEB7E8E00C94C3361F920F920FB62C
:104400000F9211242F933F934F935F936F937F935A
:104410008F939F93AF93BF93EF93FF938091E100AE
:1044200082FF09C08091E20082FF05C08091E10017
:104430008B7F8093E1008091DA0080FF2AC0809119
:10444000D80080FF26C08091DA008E7F8093DA004A
:104450008091D90080FF18C080E189BD82E189BDCB
:1044600009B400FEFDCF81E08093C6058091B905B7
:1044700081110FC00E9483210E94A2218091E2003D
:1044800084608093E20005C019BC1092C6051092AA
:10449000B9058091E10080FF17C08091E20080FFA4
:1044A00013C08091E2008E7F8093E2008091E20051
:1044B00080618093E2008091D80080628093D80070
:1044C00019BC85E08093C6058091E10084FF30C06F
:1044D0008091E20084FF2CC080E189BD82E189BD2A
:1044E00009B400FEFDCF8091D8008F7D8093D80065
:1044F0008091E1008F7E8093E1008091E2008F7EC9
:104500008093E2008091E20081608093E2008091DC
:10451000C705882311F084E007C08091E30087FD80
:1045200002C081E001C083E08093C6058091C6058A
:104530008091E10083FF27C08091E20083FF23C0C8
:104540008091E100877F8093E10082E08093C6053F
:104550001092C7058091E1008E7F8093E1008091E9
:10456000E2008E7F8093E2008091E2008061809380
:10457000E20042E060E080E00E94B21D8091F00025
:1045800088608093F000FF91EF91BF91AF919F9170
:104590008F917F916F915F914F913F912F910F90EC
:1045A0000FBE0F901F9018952091E4003091E50008
:1045B00095E64091EC00842F817040FF23C08091EC
:1045C000E80080FD1DC08091C605882399F08530E4
:1045D00099F08091EB0085FD11C04091E40050916D
:1045E000E5002417350729F3915011F09A01E1CF26
:1045F00084E0089582E0089583E0089581E00895BD
:1046000080E008954091E80042FFDDCF089580E00A
:1046100008959091B20592FF10C041E0282F2471B7
:10462000243009F040E031E0282F2871283009F0CB
:1046300030E0431711F02CE0822793FF10C041E0D7
:10464000282F2471243109F040E031E0282F28710F
:10465000283109F030E0431711F02CE08227309127
:10466000B30530FF10C051E0282F2171213009F02F
:1046700050E041E0282F2871283009F040E054171D
:1046800011F029E0822731FF10C041E0282F21716D
:10469000213109F040E031E0282F2871283109F05C
:1046A00030E0431711F029E0822794FD877E0895BA
:1046B0008238910569F1B0F48133910509F475C030
:1046C00048F48932910509F467C08A32910509F4EA
:1046D00071C008958533910509F459C08933910556
:1046E000B9F00895833E910589F138F4803E910533
:1046F000D1F0823E910529F10895863E9105C9F1D8
:10470000873E9105D9F1843E910509F06CC027C020
:104710002091B20520FD57C021FD55C02091B30561
:1047200023FD5BC008958091B20580FD48C0809153
:10473000B30580FF48C08091B20584FD46C083EE7A
:1047400051C08091B20582FF3CC0F5CF8091B20587
:1047500082FD37C08091B30580FD35C0ECCF8091DC
:10476000B30581FF36C08091B20584FD2EC087EE6F
:1047700039C08091B20583FF2AC0F5CF8091B20580
:1047800083FD25C08091B30581FD23C0ECCF8091CE
:10479000B20585FD22C01FC08091B20585FD1BC0FA
:1047A0008091B30583FF19C00AC08091B20586FDD0
:1047B00016C017C08091B20586FD13C010C089E3F2
:1047C00011C082EE0FC080EE0DC080E00BC086EEFF
:1047D00009C084EE07C085E305C089E203C08AE210
:1047E00001C081E390E0089590913C06809113060A
:1047F000892B909112069923E1F0892B9091120157
:10480000992341F09091B20597FF04C09EE12FE0FB
:1048100034E003C096E027E034E0F90120E0915055
:1048200028F031913323D9F32F5FF9CF2111109262
:1048300012060895209110069091D70557E0291788
:10484000A9F030E0529FF001539FF00D1124E8527F
:10485000FA4F7181761306C07081781303C0758199
:10486000741306C02F5F3F4F2770E9CF80E0089593
:1048700081E008957E30B0F46630A0F48530A0F475
:1048800094E5899FF001112486E0789FE00DF11DE9
:104890001124E60FF11DEE0FFF1FE65DFB4F859122
:1048A0009491089580E001C081E090E008951F9305
:1048B000CF93DF930E945823EC01C11580E5D80700
:1048C000E8F5C11590E4D90708F0A8C0C03ED105AD
:1048D00030F5CD3CD10508F094C0C83AD10578F444
:1048E000C53AD10508F083C0C130D10509F47CC0B8
:1048F00008F4F2C0C430D10508F0F1C0EDC0C33CEB
:10490000D10508F0E9C0C85AD0E0CC0FDD1FC35C68
:10491000DE4F0990D881C02DCE019464E1C0C1154D
:1049200080E2D80708F0CBC0C11591E0D90708F0A4
:104930006BC0C83ED10508F4D2C0CEC0C03682E5F7
:10494000D80728F5C03492E5D90708F079C0C032FD
:1049500082E5D80708F06CC0C11592E5D90708F4C4
:1049600081C04C2F4695469580E2489FA0011124B6
:10497000C37021E030E0C90102C0880F991FCA95B9
:10498000E2F7EA01C82BD92BCE019D68A9C0C03A35
:1049900082E5D807B8F48C2F8F71C03892E5D9071B
:1049A00008F07BC08695869590E2899F900111243E
:1049B000C37081E090E002C0880F991FCA95E2F7AA
:1049C0009A6868C0C03C82E5D80708F46DC0C03E54
:1049D00092E5D90708F080C0CF71DD27DC2FCC2706
:1049E000CE01806F906A7CC081E090E079C0C55AAA
:1049F000D0E0C65CDE4F8881C82FD0E0CE01906445
:104A00006FC0CE0190656CC08D2F0E940923182FB6
:104A1000CE0199270E9458231F715CC0CE019927AF
:104A20000E945823CC27DF70D06A8C2B9D2B58C056
:104A3000CF71D0E0DC2FCC27CE01816F906A50C0BF
:104A40008C2F8F718695869590E2899F9001112415
:104A5000C37081E090E002C0880F991FCA95E2F709
:104A60009C6818C08C2F8F710E94092395E0D69501
:104A7000C7959A95E1F7CF70D0E0DC2FCC27282F8F
:104A800030E084FF05C084E0220F331F8A95E1F7F0
:104A9000D069CE01822B932B23C090E0D82FCC2756
:104AA000CE01846F906A1CC08C2F8F710E940923E5
:104AB0008F7190E0D82FCC27CE01906211C08D2F3E
:104AC0008F710E940923182FCE0199270E94582325
:104AD0001F719062912B04C080E090E001C0CE0174
:104AE000DF91CF911F910895809590913C06892385
:104AF00080933C06089580911201882351F18091A2
:104B0000B20587FF26C00E94F42380930E0440E282
:104B100050E064E176E08DE094E00E94AA39892BB0
:104B2000D9F180E2EDE0F4E0A4E1B6E001900D926D
:104B30008A95E1F7E091AE05F091AF05309761F10C
:104B400086E080930D040480F581E02D8DE094E0F3
:104B500022C00E94F4238093050448E050E064E3FF
:104B600076E085E094E00E94AA39892BA9F088E0DC
:104B7000E5E0F4E0A4E3B6E001900D928A95E1F758
:104B8000E091AE05F091AF05309731F00280F381EE
:104B9000E02D85E094E009950895909111068095A7
:104BA000892380931106282F277069F4981759F0EC
:104BB0009091B30592FF07C08695869586950E94D1
:104BC000B3331092110608959091B30592FB2227FA
:104BD00020F9281779F080FB92F99093B305609142
:104BE000B2057091B30584E090E00E948B3782E0BB
:104BF0000E94CD250895809110069091D7058917C0
:104C000019F08F5F8770FBCF0895CF93DF9380916A
:104C1000D60582958F7009F04EC08091D505882306
:104C200009F449C0809110064091D7055091D105F3
:104C30006091D005C091D205D091D30577E084175B
:104C4000D1F190E0789FF001799FF00D1124DF0100
:104C5000A852BA4F14962C911497222349F1119619
:104C60002C911197251324C02C91261321C0159641
:104C70002C91159721111CC012962D913C911397E0
:104C80002C1B3D0B283C310598F48091D6058F7084
:104C900080618093D605E252FA4F80818F708061E7
:104CA000808380ED95E00E94AD0D0E94FB2503C03E
:104CB00001968770C4CFDF91CF910895A4E1B0E051
:104CC000E4E6F6E20C94A3368C0186E0F801DE01FE
:104CD0001F9601900D928A95E1F7F8018481E58095
:104CE00090ED892E95E0992E9091D405911120C0D8
:104CF000882309F463C1EE2009F442C0C8010E9470
:104D0000CF33F82E8823E1F187E0F801D401019038
:104D10000D928A95E1F78091D405813031F480912C
:104D2000D0059091D1050E9438330E94052648C1D4
:104D3000F801D080C180A280B380F090D505209189
:104D4000D2053091D305FF2009F4E7C0A501421B2D
:104D5000530B483C510508F09DC0882309F430C12D
:104D60008091D605282F207F9091D105222361F0D4
:104D70009C1509F460C0C8010E94CF33811163C043
:104D8000C8010E94AD0D1AC19C1113C09091D005AD
:104D90009D110FC0E1100DC08F7080618093D6050A
:104DA00080ED95E00E94AD0D8091D605F8018683D7
:104DB00003C1E1103AC040E06C2D8D2D0E941A24F1
:104DC00040E06C2D8D2D0E941A24E82E8111F4C034
:104DD000DF86C88A8F8598890E943833292F2295CB
:104DE0002F70243020F49F70223028F009C02A5000
:104DF000223080F014C0992349F0811107C013C0FC
:104E0000992321F0F8019681907F69F0805E8830C7
:104E100030F409C0803F38F0815F833020F0C80152
:104E20000E94AD0DEF2CFE2CCBC08091D605816089
:104E30008093D605C1C09091D0059D119CCFE11003
:104E40009ACFF80198C0EE2009F49ACF2091D605A8
:104E5000822F82958F7090E002978CF08091D00520
:104E60009091D10599878887BB86AA868091D405C1
:104E70008C871D862E87CE0108960E94AD0D87E097
:104E8000F801A0EDB5E001900D928A95E1F70E943E
:104E9000052694C09091D605292F207F51F480EDEE
:104EA00095E00E94AD0D87E0F40111928A95E9F733
:104EB00083C0882309F484C08091D1058C110CC073
:104EC0008091D0058D1108C0E11006C0F8019683CD
:104ED000C8010E94AD0D6AC0C8010E94CF3388236B
:104EE00009F44ECFEE2009F44BCF2091D605822F46
:104EF00082958F7090E0029714F28091D005909186
:104F0000D1059A838983BC82AB828091D4058D833D
:104F10001E822F83CE010196B0CFA21AB30AF8ECFD
:104F2000AF16B10408F042C0882309F447C0FE2C34
:104F3000EE2009F425CF8091D1058C1129C08091F4
:104F4000D0058D1125C09091D60590FD18C0892FF0
:104F500082958F70282F30E02115310581F0F801FE
:104F600096832F30310541F08F5F982F9295907F77
:104F700086818F70892B8683C8010E94AD0D87E0E2
:104F8000F801A0EDB5E001900D928A95E1F718C007
:104F9000C8010E94CF33811172CF8091D605816004
:104FA0008093D605C8010E94AD0D0AC087E0F401C8
:104FB00011928A95E9F704C0F12C02C0FF24F39402
:104FC0008F2D6496ECE00C94BF36A6E0B0E0EBEEDB
:104FD000F7E20C94AB360E94E91A8C0180913D06F1
:104FE00090913E060817190781F019821A820E94D3
:104FF000E91A682F49815A81792F80E090E00E9458
:105000004B3010933E0600933D062696E4E00C9448
:10501000C736EF92FF920F931F93CF93DF93809148
:105020000E0190910F01892BD9F080913F068F5F7F
:1050300080933F06811114C00E94C43290E0909387
:105040000F0180930E01892B59F42FEF83EC99E027
:10505000215080409040E1F700C000000E946B1A90
:1050600005ED13E0C0E0D0E087E0E82EED0E8D2FD7
:105070000E94ED318E2D0E94ED318D2F0E944E3217
:105080008F73F8019081891721F08083FF24F394B6
:1050900001C0F12C8E2D0E944E328F73F801978142
:1050A000891719F0878381E001C080E0F82ACF29B1
:1050B0000E943932DF5F0F5F1F4FD730A9F6CC2334
:1050C00059F081E0809342060E94E91A90934106CC
:1050D00080934006C0E022C0809142068823F1F010
:1050E00080914006909141060E94CE1A0597B0F03B
:1050F0004EE050E065ED73E084EE93E00E94AA3943
:10510000892B51F08EE0E5EDF3E0A4EEB3E00190E1
:105110000D928A95E1F7C1E0109242068C2FCDB72F
:10512000DEB7E6E00C94C536909171069370A1F05D
:10513000811102C0946007C08E3210F0946B03C0DE
:10514000880F880F982B909371061092160180910A
:105150007006816080937006089590917106937037
:1051600059F08093720660937306409374068091A1
:1051700070068160809370060895A0E0B0E0E3ECD3
:10518000F8E20C94A536EC018AE0A82EFE012491E9
:10519000222309F4A3C0213009F044C03196849140
:1051A000813059F42296FE018491893319F060E030
:1051B00070E08EC060E570E08BC0823031F42296E2
:1051C000FE0184910E944F3487C0833031F42296CF
:1051D000FE0184910E9425347FC0843009F07BC099
:1051E0002296FE01249180E090E030E020533109C6
:1051F0002A30310560F4A89EA001A99E500D11240B
:10520000C901840F951F2196FE012491EECF0097CE
:1052100009F462C0EFE9FFE03197F1F700C0000048
:105220000197F5CFE22FF0E0EE55F84FB490822FC2
:1052300086958695869590E0FC01EE56F84FE490B1
:105240002770F12C022E02C0F594E7940A94E2F73D
:10525000F1E0EF22FF24FC01EE57F84FC490D12C6F
:10526000022E02C0D594C7940A94E2F731E0C3221B
:10527000DD24FC01EE58F84F049110E002C01595B2
:1052800007952A95E2F701701127E114F10419F04E
:1052900081EE0E944F34C114D10419F086EE0E94B1
:1052A0004F3460E070E08B2D0E94BA34C114D104F9
:1052B00019F086EE0E942534E114F10419F081EE14
:1052C0000E9425340115110539F060E070E08CE290
:1052D0000E94BA3401C0EF01219658CFCDB7DEB796
:1052E000EAE00C94C136A7E0B0E0E9E7F9E20C94FB
:1052F0009D36282E4B01809113010E94431C392EAC
:105300008F832091470629839F81931508F079C0E8
:105310003F81632E712CF301E95DFD4F90818091F7
:105320001401892309F469C04090720650907306F5
:10533000122D1E82C301880F991FDC01A953BE4F95
:10534000BB83AA83C301880F991FFC01E853FE4F5A
:10535000FD83EC83F9811F1708F03EC0E12EF12C8C
:10536000AA81BB81CC90D12CF701E95BF94F8181F7
:10537000C81AD108AC81BD81AC90B12C8185A81A26
:10538000B108CC9C9001CD9C300D300D1124AA9C0D
:10539000C001AB9C900D900D1124820F931F0E94B1
:1053A000EE2E082F6091750621E0620F08F46FEF72
:1053B000F701EE0FFF1FE95BF94F818D928D0E947F
:1053C000482F7C019501A601B2018E81F401099557
:1053D0002B018E831F5FBECF209174068E81382FE4
:1053E000329F312D1124832FB2010E94652F462F49
:1053F000282F672FC3010E94912E8F818F5F8F838B
:1054000083CF81E0AFE2A31508F480E02796E2E1C4
:105410000C94B936A0E0B0E0E0E1FAE20C94A736D3
:10542000EC01809113010E94431C092F182F209139
:10543000750631E0230F08F42FEF30E040E050E034
:105440006FEF7FEF80E090E00E94913779011017B5
:1054500008F041C0C12ED12CF601E95DFD4F9081CD
:10546000809114018923A9F190914706915097FDED
:1054700015C0492F092E000C550BFA01E95BF94FB5
:1054800081891813F3CF440F551FFA01E95BF94FD7
:10549000218D328D2E153F0548F701C0970160918F
:1054A000750641E0640F08F46FEFC9010E94482FB0
:1054B000AC01609172067091730680917406FE01D2
:1054C00009950E94652F462F282F672FC6010E943D
:1054D000912E1F5FBCCF81E0003308F080E0CDB794
:1054E000DEB7E8E00C94C336A0E0B0E0EAE7FAE209
:1054F0000C94A8368C01809113010E94431CEC018E
:10550000609175066695669521E0620F08F46FEF6D
:1055100080914306909144060E94482FD82ECD17C3
:10552000F0F4EC2EF12CF701E95DFD4F90818091B4
:105530001401892391F06091720670917306809135
:1055400074062D2D4C2FF80109950E94652F462FCA
:10555000282F672FC7010E94912ECF5FE0CF81E0F7
:10556000D03308F080E0CDB7DEB7E7E00C94C43666
:10557000A0E0B0E0EEEBFAE20C94A4366C0180916E
:1055800013010E94431C192FC82F60917506669560
:10559000669580914306909144060E94482FD82F2B
:1055A00080E48D0F0E94942E90E8F92EF80E8D2F36
:1055B0000E94942E20E8922E980EC11700F5AC2E72
:1055C000B12CF501E95DFD4F908180911401892393
:1055D000A1F0609172067091730680917406ED2EB1
:1055E0000C2F292D4F2DF60109950E94652F462F6E
:1055F000282F672FC5010E94912ECF5FDECF81E05B
:10560000103308F080E0CDB7DEB7EBE00C94C03685
:10561000A0E0B0E0EEE0FBE20C94A2365C018091E9
:1056200013010E94431CF92E182F60917506669590
:1056300080914306909144060E94482F782E1F15B2
:1056400008F043C0812E912CF401E95DFD4F90815B
:10565000809114018923B9F1F401EE0FFF1FE95382
:10566000FE4FC081D0E0C057D109F401EE0FFF1FFB
:10567000E853FE4FC080D12C80E2C81AD108CC9FDD
:105680009001CD9F300D300D1124CC9CC001CD9CDC
:10569000900D900D1124820F931F0E94EE2E082F63
:1056A000609172067091730680917406E72C9601E2
:1056B000AE01F50109950E94652F462F282F672F0F
:1056C000C4010E94912E1F5FBACF81E0FFE2FF1557
:1056D00008F480E0CDB7DEB7EDE00C94BE36A0E074
:1056E000B0E0E5E7FBE20C94A7367C018091130162
:1056F0000E94431CD92E182F6091750666958091E3
:105700004306909144060E94482FC82E1D1578F537
:10571000C12FD0E0FE01E95DFD4F90818091140121
:10572000892319F1FE01EE0FFF1FE853FE4F208180
:1057300030E020523109FE01EE0FFF1FE953FE4F0A
:10574000408150E040575109609172067091730694
:10575000809174060C2DF70109950E94652F462F44
:10576000282F672FCE010E94912E1F5FCFCF81E09F
:10577000FFE2FD1508F480E0CDB7DEB7E8E00C9459
:10578000C336EF92FF920F939701201B31092F3FF1
:10579000310519F010F02FEF30E02095382F320F3F
:1057A00008F43FEF832F0F91FF90EF900895EF9251
:1057B000FF920F939701201B31092F3F310519F0FC
:1057C00010F02FEF30E0322F3095482F430F08F4C0
:1057D0004FEF842F620F0F91FF90EF900895EF929B
:1057E000FF920F93972F093438F4B701601B7109AA
:1057F0006F3F710519F010F06FEF70E0485F5F4F79
:105800004131510540F0A901485F5F4F41315105D9
:1058100010F06FEF70E06095482F460F08F44FEFDF
:10582000842F37FF02C02D5F3F4F35952795359563
:10583000279560917206620F792F0F91FF90EF907C
:105840000895EF92FF920F93E00EF11CF90137FFDC
:1058500003C0F195E195F10924E0EE0FFF1F2A95B1
:10586000E1F7EF3FF10519F014F0EFEFF0E09A01E6
:1058700057FF03C031952195310994E0220F331F62
:105880009A95E1F72E173F070CF4F901EE0DFF1D75
:10589000EF3FF10519F010F0EFEFF0E02E2F20951B
:1058A000382F320F08F43FEF832F0F91FF90EF90C6
:1058B0000895EF92FF920F93970195E0099F200DB5
:1058C000311D11242F3F310519F010F02FEF30E07A
:1058D0002095382F320F08F43FEF832F0F91FF9060
:1058E000EF900895409520E4429F412D1124640FCC
:1058F00008954095282F429F412D1124842F08950B
:10590000E42FF0E0EE0FFF1FE953FE4F9081921B52
:1059100097FD9195292F38E1239F212D1124620FA6
:1059200008950F931F9310E0F801EE0FFF1FE95346
:10593000FE4F9081905797FD9195000F111FF80130
:10594000E853FE4FE081F0E0B097DF01AA0FBB1FE4
:105950008D010E0F1F1F2003D001219FB00D1124B8
:10596000E8E3F0E0E91BF10997FDF3959F01220FB1
:10597000331F89010E0F1F1F40039001419F300DFF
:1059800011242A0F3B1F37FF02C021583F4F220F1F
:10599000232F221F330B620F1F910F9108950F9336
:1059A0001F93522F10E0F801EE0FFF1FE853FE4F38
:1059B000E081F0E0B097EE0FFF1F9F015203D0018E
:1059C000539FB00D1124000F111FF801E953FE4F32
:1059D000008110E000571109000F111F40039001D2
:1059E000419F300D11242A0F3B1F37FF02C0215861
:1059F0003F4F220F232F221F330B620F1F910F9156
:105A000008950F931F93522F10E0F801EE0FFF1F20
:105A1000E853FE4FE081F0E0B0979F015203D001C0
:105A2000539FB00D1124000F111FF801E953FE4FD1
:105A3000008110E00057110940039001419F300D93
:105A400011242A0F3B1F37FF02C021583F4F220F5E
:105A5000232F221F330B620F1F910F910895EF9296
:105A60000F931F9393E0099F8001112415950795CB
:105A70006E2D600F1F910F91EF900895A22F50E0AF
:105A8000FA01EE0FFF1FE853FE4F9081905297FDF1
:105A90009195440F551FFA01E953FE4F3081232F92
:105AA00030E02A1B3109290F311D97FD3A95620F0D
:105AB0000895E42FF0E0EE0FFF1FE853FE4F6081E2
:105AC000621B0895E42FF0E0EE0FFF1FE953FE4F35
:105AD0006081621B0895622F0895E42FF0E0EE0FBD
